{
  "contractName": "Bank",
  "abi": [
    {
      "inputs": [
        {
          "internalType": "contract IERC20",
          "name": "_token",
          "type": "address"
        },
        {
          "internalType": "uint32",
          "name": "_tokenRewardPool",
          "type": "uint32"
        },
        {
          "internalType": "uint256",
          "name": "_timePeriod",
          "type": "uint256"
        }
      ],
      "stateMutability": "nonpayable",
      "type": "constructor"
    },
    {
      "anonymous": false,
      "inputs": [
        {
          "indexed": false,
          "internalType": "address",
          "name": "sender",
          "type": "address"
        },
        {
          "indexed": false,
          "internalType": "uint256",
          "name": "amount",
          "type": "uint256"
        }
      ],
      "name": "Deposit",
      "type": "event"
    },
    {
      "anonymous": false,
      "inputs": [
        {
          "indexed": false,
          "internalType": "address",
          "name": "sender",
          "type": "address"
        },
        {
          "indexed": false,
          "internalType": "uint256",
          "name": "amount",
          "type": "uint256"
        }
      ],
      "name": "Withdrawal",
      "type": "event"
    },
    {
      "inputs": [],
      "name": "_owner",
      "outputs": [
        {
          "internalType": "address",
          "name": "",
          "type": "address"
        }
      ],
      "stateMutability": "view",
      "type": "function",
      "constant": true
    },
    {
      "inputs": [
        {
          "internalType": "address",
          "name": "",
          "type": "address"
        }
      ],
      "name": "balanceOf",
      "outputs": [
        {
          "internalType": "uint256",
          "name": "",
          "type": "uint256"
        }
      ],
      "stateMutability": "view",
      "type": "function",
      "constant": true
    },
    {
      "inputs": [],
      "name": "contractBalance",
      "outputs": [
        {
          "internalType": "uint256",
          "name": "",
          "type": "uint256"
        }
      ],
      "stateMutability": "view",
      "type": "function",
      "constant": true
    },
    {
      "inputs": [],
      "name": "isOwner",
      "outputs": [
        {
          "internalType": "bool",
          "name": "",
          "type": "bool"
        }
      ],
      "stateMutability": "view",
      "type": "function",
      "constant": true
    },
    {
      "inputs": [],
      "name": "r1",
      "outputs": [
        {
          "internalType": "uint256",
          "name": "",
          "type": "uint256"
        }
      ],
      "stateMutability": "view",
      "type": "function",
      "constant": true
    },
    {
      "inputs": [],
      "name": "r2",
      "outputs": [
        {
          "internalType": "uint256",
          "name": "",
          "type": "uint256"
        }
      ],
      "stateMutability": "view",
      "type": "function",
      "constant": true
    },
    {
      "inputs": [],
      "name": "r3",
      "outputs": [
        {
          "internalType": "uint256",
          "name": "",
          "type": "uint256"
        }
      ],
      "stateMutability": "view",
      "type": "function",
      "constant": true
    },
    {
      "inputs": [],
      "name": "timeContractLaunched",
      "outputs": [
        {
          "internalType": "uint256",
          "name": "",
          "type": "uint256"
        }
      ],
      "stateMutability": "view",
      "type": "function",
      "constant": true
    },
    {
      "inputs": [],
      "name": "timePeriod",
      "outputs": [
        {
          "internalType": "uint256",
          "name": "",
          "type": "uint256"
        }
      ],
      "stateMutability": "view",
      "type": "function",
      "constant": true
    },
    {
      "inputs": [],
      "name": "token",
      "outputs": [
        {
          "internalType": "contract IERC20",
          "name": "",
          "type": "address"
        }
      ],
      "stateMutability": "view",
      "type": "function",
      "constant": true
    },
    {
      "inputs": [],
      "name": "tokenRewardPool",
      "outputs": [
        {
          "internalType": "uint256",
          "name": "",
          "type": "uint256"
        }
      ],
      "stateMutability": "view",
      "type": "function",
      "constant": true
    },
    {
      "inputs": [
        {
          "internalType": "uint256",
          "name": "amount",
          "type": "uint256"
        }
      ],
      "name": "deposit",
      "outputs": [],
      "stateMutability": "nonpayable",
      "type": "function"
    },
    {
      "inputs": [],
      "name": "withdraw",
      "outputs": [],
      "stateMutability": "nonpayable",
      "type": "function"
    },
    {
      "inputs": [],
      "name": "bankWithdrawal",
      "outputs": [],
      "stateMutability": "nonpayable",
      "type": "function"
    }
  ],
  "bytecode": "0x60806040523480156200001157600080fd5b5060405162001e9938038062001e99833981810160405281019062000037919062000245565b336000806101000a81548173ffffffffffffffffffffffffffffffffffffffff021916908373ffffffffffffffffffffffffffffffffffffffff16021790555082600160006101000a81548173ffffffffffffffffffffffffffffffffffffffff021916908373ffffffffffffffffffffffffffffffffffffffff1602179055508163ffffffff1660028190555060646002546014620000d89190620002d0565b620000e4919062000360565b6003819055506064600254601e620000fd9190620002d0565b62000109919062000360565b60048190555060646002546032620001229190620002d0565b6200012e919062000360565b600581905550806006819055504260078190555050505062000398565b600080fd5b600073ffffffffffffffffffffffffffffffffffffffff82169050919050565b60006200017d8262000150565b9050919050565b6000620001918262000170565b9050919050565b620001a38162000184565b8114620001af57600080fd5b50565b600081519050620001c38162000198565b92915050565b600063ffffffff82169050919050565b620001e481620001c9565b8114620001f057600080fd5b50565b6000815190506200020481620001d9565b92915050565b6000819050919050565b6200021f816200020a565b81146200022b57600080fd5b50565b6000815190506200023f8162000214565b92915050565b6000806000606084860312156200026157620002606200014b565b5b60006200027186828701620001b2565b93505060206200028486828701620001f3565b925050604062000297868287016200022e565b9150509250925092565b7f4e487b7100000000000000000000000000000000000000000000000000000000600052601160045260246000fd5b6000620002dd826200020a565b9150620002ea836200020a565b9250817fffffffffffffffffffffffffffffffffffffffffffffffffffffffffffffffff0483118215151615620003265762000325620002a1565b5b828202905092915050565b7f4e487b7100000000000000000000000000000000000000000000000000000000600052601260045260246000fd5b60006200036d826200020a565b91506200037a836200020a565b9250826200038d576200038c62000331565b5b828204905092915050565b611af180620003a86000396000f3fe608060405234801561001057600080fd5b50600436106100ea5760003560e01c80637f44657b1161008c5780638f32d59b116100665780638f32d59b14610205578063b2bdfa7b14610223578063b6b55f2514610241578063fc0c546a1461025d576100ea565b80637f44657b146101ab5780638b7afe2e146101c95780638bf6e410146101e7576100ea565b80633ccfd60b116100c85780633ccfd60b146101355780633e79d1e11461013f5780636ca5b5b01461015d57806370a082311461017b576100ea565b80630bcbbd21146100ef5780631d98b81a1461010d57806339297a6d1461012b575b600080fd5b6100f761027b565b604051610104919061125c565b60405180910390f35b610115610281565b604051610122919061125c565b60405180910390f35b610133610287565b005b61013d610455565b005b610147610e8c565b604051610154919061125c565b60405180910390f35b610165610e92565b604051610172919061125c565b60405180910390f35b610195600480360381019061019091906112da565b610e98565b6040516101a2919061125c565b60405180910390f35b6101b3610eb0565b6040516101c0919061125c565b60405180910390f35b6101d1610eb6565b6040516101de919061125c565b60405180910390f35b6101ef610ebc565b6040516101fc919061125c565b60405180910390f35b61020d610ec2565b60405161021a9190611322565b60405180910390f35b61022b610f19565b604051610238919061134c565b60405180910390f35b61025b60048036038101906102569190611393565b610f3d565b005b61026561121d565b604051610272919061141f565b60405180910390f35b60045481565b60025481565b61028f610ec2565b6102ce576040517f08c379a00000000000000000000000000000000000000000000000000000000081526004016102c590611497565b60405180910390fd5b600042905060065460046102e291906114e6565b6007546102ef9190611540565b811180156102ff57506000600a54145b61033e576040517f08c379a000000000000000000000000000000000000000000000000000000000815260040161033590611608565b60405180910390fd5b60006005546004546003546103539190611540565b61035d9190611540565b9050600160009054906101000a900473ffffffffffffffffffffffffffffffffffffffff1673ffffffffffffffffffffffffffffffffffffffff1663a9059cbb33836040518363ffffffff1660e01b81526004016103bc929190611628565b6020604051808303816000875af11580156103db573d6000803e3d6000fd5b505050506040513d601f19601f820116820180604052508101906103ff919061167d565b506000600381905550600060048190555060006005819055507f7fcf532c15f0a6db0bd6d0e038bea71d30d808c7d98cb3bf7268a95bf5081b653382604051610449929190611628565b60405180910390a15050565b6000429050600654600261046991906114e6565b6007546104769190611540565b81116104b7576040517f08c379a00000000000000000000000000000000000000000000000000000000081526004016104ae906116f6565b60405180910390fd5b6000600860003373ffffffffffffffffffffffffffffffffffffffff1673ffffffffffffffffffffffffffffffffffffffff1681526020019081526020016000205411610539576040517f08c379a000000000000000000000000000000000000000000000000000000000815260040161053090611762565b60405180910390fd5b600654600261054891906114e6565b6007546105559190611540565b8111801561057d5750600654600361056d91906114e6565b60075461057a9190611540565b81105b156107de576000600954600860003373ffffffffffffffffffffffffffffffffffffffff1673ffffffffffffffffffffffffffffffffffffffff168152602001908152602001600020546003546105d491906114e6565b6105de91906117b1565b9050600081600860003373ffffffffffffffffffffffffffffffffffffffff1673ffffffffffffffffffffffffffffffffffffffff1681526020019081526020016000205461062d9190611540565b9050600160009054906101000a900473ffffffffffffffffffffffffffffffffffffffff1673ffffffffffffffffffffffffffffffffffffffff1663a9059cbb33836040518363ffffffff1660e01b815260040161068c929190611628565b6020604051808303816000875af11580156106ab573d6000803e3d6000fd5b505050506040513d601f19601f820116820180604052508101906106cf919061167d565b50600860003373ffffffffffffffffffffffffffffffffffffffff1673ffffffffffffffffffffffffffffffffffffffff168152602001908152602001600020546009600082825461072191906117e2565b925050819055506000600860003373ffffffffffffffffffffffffffffffffffffffff1673ffffffffffffffffffffffffffffffffffffffff16815260200190815260200160002081905550816003600082825461077f91906117e2565b92505081905550600a600081548092919061079990611816565b91905055507f7fcf532c15f0a6db0bd6d0e038bea71d30d808c7d98cb3bf7268a95bf5081b6533826040516107cf929190611628565b60405180910390a15050610e89565b60065460036107ed91906114e6565b6007546107fa9190611540565b811180156108225750600654600461081291906114e6565b60075461081f9190611540565b81105b15610b06576000600954600860003373ffffffffffffffffffffffffffffffffffffffff1673ffffffffffffffffffffffffffffffffffffffff1681526020019081526020016000205460035461087991906114e6565b61088391906117b1565b90506000600954600860003373ffffffffffffffffffffffffffffffffffffffff1673ffffffffffffffffffffffffffffffffffffffff168152602001908152602001600020546004546108d791906114e6565b6108e191906117b1565b905060008183600860003373ffffffffffffffffffffffffffffffffffffffff1673ffffffffffffffffffffffffffffffffffffffff168152602001908152602001600020546109319190611540565b61093b9190611540565b9050600160009054906101000a900473ffffffffffffffffffffffffffffffffffffffff1673ffffffffffffffffffffffffffffffffffffffff1663a9059cbb33836040518363ffffffff1660e01b815260040161099a929190611628565b6020604051808303816000875af11580156109b9573d6000803e3d6000fd5b505050506040513d601f19601f820116820180604052508101906109dd919061167d565b50600860003373ffffffffffffffffffffffffffffffffffffffff1673ffffffffffffffffffffffffffffffffffffffff1681526020019081526020016000205460096000828254610a2f91906117e2565b925050819055506000600860003373ffffffffffffffffffffffffffffffffffffffff1673ffffffffffffffffffffffffffffffffffffffff168152602001908152602001600020819055508260036000828254610a8d91906117e2565b925050819055508160046000828254610aa691906117e2565b92505081905550600a6000815480929190610ac090611816565b91905055507f7fcf532c15f0a6db0bd6d0e038bea71d30d808c7d98cb3bf7268a95bf5081b653382604051610af6929190611628565b60405180910390a1505050610e88565b6006546004610b1591906114e6565b600754610b229190611540565b811115610e87576000600954600860003373ffffffffffffffffffffffffffffffffffffffff1673ffffffffffffffffffffffffffffffffffffffff16815260200190815260200160002054600354610b7b91906114e6565b610b8591906117b1565b90506000600954600860003373ffffffffffffffffffffffffffffffffffffffff1673ffffffffffffffffffffffffffffffffffffffff16815260200190815260200160002054600454610bd991906114e6565b610be391906117b1565b90506000600954600860003373ffffffffffffffffffffffffffffffffffffffff1673ffffffffffffffffffffffffffffffffffffffff16815260200190815260200160002054600554610c3791906114e6565b610c4191906117b1565b90506000818385600860003373ffffffffffffffffffffffffffffffffffffffff1673ffffffffffffffffffffffffffffffffffffffff16815260200190815260200160002054610c929190611540565b610c9c9190611540565b610ca69190611540565b9050600160009054906101000a900473ffffffffffffffffffffffffffffffffffffffff1673ffffffffffffffffffffffffffffffffffffffff1663a9059cbb33836040518363ffffffff1660e01b8152600401610d05929190611628565b6020604051808303816000875af1158015610d24573d6000803e3d6000fd5b505050506040513d601f19601f82011682018060405250810190610d48919061167d565b50600860003373ffffffffffffffffffffffffffffffffffffffff1673ffffffffffffffffffffffffffffffffffffffff1681526020019081526020016000205460096000828254610d9a91906117e2565b925050819055506000600860003373ffffffffffffffffffffffffffffffffffffffff1673ffffffffffffffffffffffffffffffffffffffff168152602001908152602001600020819055508360036000828254610df891906117e2565b925050819055508260046000828254610e1191906117e2565b925050819055508160056000828254610e2a91906117e2565b92505081905550600a6000815480929190610e4490611816565b91905055507f7fcf532c15f0a6db0bd6d0e038bea71d30d808c7d98cb3bf7268a95bf5081b653382604051610e7a929190611628565b60405180910390a1505050505b5b5b50565b60065481565b60035481565b60086020528060005260406000206000915090505481565b60075481565b60095481565b60055481565b60008060009054906101000a900473ffffffffffffffffffffffffffffffffffffffff1673ffffffffffffffffffffffffffffffffffffffff163373ffffffffffffffffffffffffffffffffffffffff1614905090565b60008054906101000a900473ffffffffffffffffffffffffffffffffffffffff1681565b60065460075442610f4e91906117e2565b10610f8e576040517f08c379a0000000000000000000000000000000000000000000000000000000008152600401610f85906118b2565b60405180910390fd5b60008111610fd1576040517f08c379a0000000000000000000000000000000000000000000000000000000008152600401610fc890611944565b60405180910390fd5b6000600160009054906101000a900473ffffffffffffffffffffffffffffffffffffffff1673ffffffffffffffffffffffffffffffffffffffff1663dd62ed3e33306040518363ffffffff1660e01b8152600401611030929190611964565b602060405180830381865afa15801561104d573d6000803e3d6000fd5b505050506040513d601f19601f8201168201806040525081019061107191906119a2565b9050818110156110b6576040517f08c379a00000000000000000000000000000000000000000000000000000000081526004016110ad90611a1b565b60405180910390fd5b600160009054906101000a900473ffffffffffffffffffffffffffffffffffffffff1673ffffffffffffffffffffffffffffffffffffffff166323b872dd3330856040518463ffffffff1660e01b815260040161111593929190611a3b565b6020604051808303816000875af1158015611134573d6000803e3d6000fd5b505050506040513d601f19601f82011682018060405250810190611158919061167d565b5081600860003373ffffffffffffffffffffffffffffffffffffffff1673ffffffffffffffffffffffffffffffffffffffff16815260200190815260200160002060008282546111a89190611540565b9250508190555081600960008282546111c19190611540565b92505081905550600a60008154809291906111db90611a72565b91905055507fe1fffcc4923d04b559f4d29a8bfc6cda04eb5b0d3c460751c2402c5c5cc9109c3383604051611211929190611628565b60405180910390a15050565b600160009054906101000a900473ffffffffffffffffffffffffffffffffffffffff1681565b6000819050919050565b61125681611243565b82525050565b6000602082019050611271600083018461124d565b92915050565b600080fd5b600073ffffffffffffffffffffffffffffffffffffffff82169050919050565b60006112a78261127c565b9050919050565b6112b78161129c565b81146112c257600080fd5b50565b6000813590506112d4816112ae565b92915050565b6000602082840312156112f0576112ef611277565b5b60006112fe848285016112c5565b91505092915050565b60008115159050919050565b61131c81611307565b82525050565b60006020820190506113376000830184611313565b92915050565b6113468161129c565b82525050565b6000602082019050611361600083018461133d565b92915050565b61137081611243565b811461137b57600080fd5b50565b60008135905061138d81611367565b92915050565b6000602082840312156113a9576113a8611277565b5b60006113b78482850161137e565b91505092915050565b6000819050919050565b60006113e56113e06113db8461127c565b6113c0565b61127c565b9050919050565b60006113f7826113ca565b9050919050565b6000611409826113ec565b9050919050565b611419816113fe565b82525050565b60006020820190506114346000830184611410565b92915050565b600082825260208201905092915050565b7f4f776e61626c653a2063616c6c6572206973206e6f7420746865206f776e6572600082015250565b600061148160208361143a565b915061148c8261144b565b602082019050919050565b600060208201905081810360008301526114b081611474565b9050919050565b7f4e487b7100000000000000000000000000000000000000000000000000000000600052601160045260246000fd5b60006114f182611243565b91506114fc83611243565b9250817fffffffffffffffffffffffffffffffffffffffffffffffffffffffffffffffff0483118215151615611535576115346114b7565b5b828202905092915050565b600061154b82611243565b915061155683611243565b9250827fffffffffffffffffffffffffffffffffffffffffffffffffffffffffffffffff0382111561158b5761158a6114b7565b5b828201905092915050565b7f42616e6b205769746864726177616c7320617265206e6f7420616c6c6f77656460008201527f207965742e000000000000000000000000000000000000000000000000000000602082015250565b60006115f260258361143a565b91506115fd82611596565b604082019050919050565b60006020820190508181036000830152611621816115e5565b9050919050565b600060408201905061163d600083018561133d565b61164a602083018461124d565b9392505050565b61165a81611307565b811461166557600080fd5b50565b60008151905061167781611651565b92915050565b60006020828403121561169357611692611277565b5b60006116a184828501611668565b91505092915050565b7f5769746864726177616c7320617265206e6f7420616c6c6f776564207965742e600082015250565b60006116e060208361143a565b91506116eb826116aa565b602082019050919050565b6000602082019050818103600083015261170f816116d3565b9050919050565b7f496e73756666696369656e742066756e64732e00000000000000000000000000600082015250565b600061174c60138361143a565b915061175782611716565b602082019050919050565b6000602082019050818103600083015261177b8161173f565b9050919050565b7f4e487b7100000000000000000000000000000000000000000000000000000000600052601260045260246000fd5b60006117bc82611243565b91506117c783611243565b9250826117d7576117d6611782565b5b828204905092915050565b60006117ed82611243565b91506117f883611243565b92508282101561180b5761180a6114b7565b5b828203905092915050565b600061182182611243565b91506000821415611835576118346114b7565b5b600182039050919050565b7f576520617265206e6f206c6f6e67657220616363657074696e67206465706f7360008201527f6974732e00000000000000000000000000000000000000000000000000000000602082015250565b600061189c60248361143a565b91506118a782611840565b604082019050919050565b600060208201905081810360008301526118cb8161188f565b9050919050565b7f596f75206e65656420746f206465706f736974206174206c6561737420736f6d60008201527f6520746f6b656e73000000000000000000000000000000000000000000000000602082015250565b600061192e60288361143a565b9150611939826118d2565b604082019050919050565b6000602082019050818103600083015261195d81611921565b9050919050565b6000604082019050611979600083018561133d565b611986602083018461133d565b9392505050565b60008151905061199c81611367565b92915050565b6000602082840312156119b8576119b7611277565b5b60006119c68482850161198d565b91505092915050565b7f436865636b2074686520746f6b656e20616c6c6f77616e636500000000000000600082015250565b6000611a0560198361143a565b9150611a10826119cf565b602082019050919050565b60006020820190508181036000830152611a34816119f8565b9050919050565b6000606082019050611a50600083018661133d565b611a5d602083018561133d565b611a6a604083018461124d565b949350505050565b6000611a7d82611243565b91507fffffffffffffffffffffffffffffffffffffffffffffffffffffffffffffffff821415611ab057611aaf6114b7565b5b60018201905091905056fea264697066735822122058499c2d0776100f657a52564aa6b0fee7e19d218a7ced21a244eea6df63c51964736f6c634300080b0033",
  "immutableReferences": {},
  "source": "// SPDX-License-Identifier: MIT\r\npragma solidity ^0.8.0;\r\n\r\nimport \"./Ownable.sol\";\r\nimport \"@openzeppelin/contracts/token/ERC20/IERC20.sol\";\r\n\r\ncontract Bank is Ownable{\r\n    IERC20 public token;\r\n    uint public tokenRewardPool;\r\n    uint public r1;\r\n    uint public r2;\r\n    uint public r3;\r\n    uint public timePeriod;\r\n    uint public timeContractLaunched;\r\n    mapping(address => uint) public balanceOf;\r\n    uint public contractBalance;\r\n    uint private users;\r\n\r\n    event Deposit(address sender, uint amount);\r\n    event Withdrawal(address sender, uint amount);\r\n\r\n    constructor (IERC20 _token, uint32 _tokenRewardPool, uint _timePeriod) {\r\n        token = _token;\r\n        tokenRewardPool = _tokenRewardPool;\r\n        r1 = 20 * tokenRewardPool / 100;\r\n        r2 = 30 * tokenRewardPool / 100;\r\n        r3 = 50 * tokenRewardPool / 100;\r\n        timePeriod = _timePeriod;\r\n        timeContractLaunched = block.timestamp;\r\n    }\r\n\r\n    function deposit(uint256 amount) public {\r\n        require(block.timestamp - timeContractLaunched < timePeriod, \"We are no longer accepting deposits.\");\r\n        require(amount > 0, \"You need to deposit at least some tokens\");\r\n        uint allowance = token.allowance(msg.sender, address(this));\r\n        require(allowance >= amount, \"Check the token allowance\");\r\n        token.transferFrom(msg.sender, address(this), amount);\r\n        balanceOf[msg.sender] += amount;\r\n        contractBalance += amount;\r\n        users++;\r\n        emit Deposit(msg.sender, amount);\r\n    }\r\n\r\n    function withdraw() public {\r\n        uint timeNow = block.timestamp;\r\n        require(timeNow > timeContractLaunched + 2 * timePeriod, \"Withdrawals are not allowed yet.\");\r\n        require(balanceOf[msg.sender] > 0, \"Insufficient funds.\");\r\n        if (timeNow > timeContractLaunched + 2 * timePeriod && timeNow < timeContractLaunched + 3 * timePeriod) {\r\n            uint amountr1 = r1 * balanceOf[msg.sender] / contractBalance;\r\n            uint amount = balanceOf[msg.sender] + amountr1;\r\n            token.transfer(msg.sender, amount);\r\n            contractBalance -= balanceOf[msg.sender];\r\n            balanceOf[msg.sender] = 0;\r\n            r1 -= amountr1;\r\n            users--;\r\n            emit Withdrawal(msg.sender, amount);            \r\n        } else if(timeNow > timeContractLaunched + 3 * timePeriod && timeNow < timeContractLaunched + 4 * timePeriod) {\r\n            uint amountr1 = r1 * balanceOf[msg.sender] / contractBalance;\r\n            uint amountr2 = r2 * balanceOf[msg.sender] / contractBalance;\r\n            uint amount = balanceOf[msg.sender] + amountr1 + amountr2;\r\n            token.transfer(msg.sender, amount);\r\n            contractBalance -= balanceOf[msg.sender];\r\n            balanceOf[msg.sender] = 0;\r\n            r1 -= amountr1;\r\n            r2 -= amountr2;\r\n            users--;\r\n            emit Withdrawal(msg.sender, amount);\r\n        } else if(timeNow > timeContractLaunched + 4 * timePeriod) {\r\n            uint amountr1 = r1 * balanceOf[msg.sender] / contractBalance;\r\n            uint amountr2 = r2 * balanceOf[msg.sender] / contractBalance;\r\n            uint amountr3 = r3 * balanceOf[msg.sender] / contractBalance;\r\n            uint amount = balanceOf[msg.sender] + amountr1 + amountr2 + amountr3;\r\n            token.transfer(msg.sender, amount);\r\n            contractBalance -= balanceOf[msg.sender];\r\n            balanceOf[msg.sender] = 0;\r\n            r1 -= amountr1;\r\n            r2 -= amountr2;\r\n            r3 -= amountr3;\r\n            users--;\r\n            emit Withdrawal(msg.sender, amount);\r\n        }        \r\n    }\r\n\r\n    function bankWithdrawal() public onlyOwner {\r\n        uint timeNow = block.timestamp;\r\n        require(timeNow > timeContractLaunched + 4 * timePeriod && users == 0, \"Bank Withdrawals are not allowed yet.\");\r\n        uint amount = r1 + r2 + r3;\r\n        token.transfer(msg.sender, amount);\r\n        r1 = 0;\r\n        r2 = 0;\r\n        r3 = 0;        \r\n        emit Withdrawal(msg.sender, amount);\r\n    }\r\n}",
  "sourcePath": "C:\\Users\\vinic\\Documents\\blockchain\\bank\\contracts\\Bank.sol",
  "compiler": {
    "name": "solc",
    "version": "0.8.11+commit.d7f03943.Emscripten.clang"
  },
  "schemaVersion": "3.4.3",
  "updatedAt": "2022-01-21T23:59:12.314Z",
  "networkType": "ethereum",
  "devdoc": {
    "kind": "dev",
    "methods": {
      "isOwner()": {
        "details": "Returns true if the caller is the current owner."
      }
    },
    "version": 1
  },
  "userdoc": {
    "kind": "user",
    "methods": {},
    "version": 1
  }
}